08:14:34.034923 IP 127.0.0.1.56532 > 127.0.0.1.20000: Flags [S], seq 3896897499, win 65495, options [mss 65495,sackOK,TS val 2184447270 ecr 0,nop,wscale 7], length 0
	0x0000:  4500 003c 3ab6 4000 4006 0204 7f00 0001  E..<:.@.@.......
	0x0010:  7f00 0001 dcd4 4e20 e845 efdb 0000 0000  ......N..E......
	0x0020:  a002 ffd7 fe30 0000 0204 ffd7 0402 080a  .....0..........
	0x0030:  8234 0526 0000 0000 0103 0307            .4.&........
08:14:34.034929 IP 127.0.0.1.20000 > 127.0.0.1.56532: Flags [S.], seq 2188099697, ack 3896897500, win 65483, options [mss 65495,sackOK,TS val 2184447270 ecr 2184447270,nop,wscale 7], length 0
	0x0000:  4500 003c 0000 4000 4006 3cba 7f00 0001  E..<..@.@.<.....
	0x0010:  7f00 0001 4e20 dcd4 826b c071 e845 efdc  ....N....k.q.E..
	0x0020:  a012 ffcb fe30 0000 0204 ffd7 0402 080a  .....0..........
	0x0030:  8234 0526 8234 0526 0103 0307            .4.&.4.&....
08:14:34.034932 IP 127.0.0.1.56532 > 127.0.0.1.20000: Flags [.], ack 2188099698, win 512, options [nop,nop,TS val 2184447270 ecr 2184447270], length 0
	0x0000:  4500 0034 3ab7 4000 4006 020b 7f00 0001  E..4:.@.@.......
	0x0010:  7f00 0001 dcd4 4e20 e845 efdc 826b c072  ......N..E...k.r
	0x0020:  8010 0200 fe28 0000 0101 080a 8234 0526  .....(.......4.&
	0x0030:  8234 0526                                .4.&
08:14:36.394194 IP 127.0.0.1.56532 > 127.0.0.1.20000: Flags [F.], seq 3896897500, ack 2188099698, win 512, options [nop,nop,TS val 2184449629 ecr 2184447270], length 0
	0x0000:  4500 0034 3ab8 4000 4006 020a 7f00 0001  E..4:.@.@.......
	0x0010:  7f00 0001 dcd4 4e20 e845 efdc 826b c072  ......N..E...k.r
	0x0020:  8011 0200 fe28 0000 0101 080a 8234 0e5d  .....(.......4.]
	0x0030:  8234 0526                                .4.&
08:14:36.394389 IP 127.0.0.1.20000 > 127.0.0.1.56532: Flags [F.], seq 2188099698, ack 3896897501, win 512, options [nop,nop,TS val 2184449629 ecr 2184449629], length 0
	0x0000:  4500 0034 0759 4000 4006 3569 7f00 0001  E..4.Y@.@.5i....
	0x0010:  7f00 0001 4e20 dcd4 826b c072 e845 efdd  ....N....k.r.E..
	0x0020:  8011 0200 fe28 0000 0101 080a 8234 0e5d  .....(.......4.]
	0x0030:  8234 0e5d                                .4.]
08:14:36.394401 IP 127.0.0.1.56532 > 127.0.0.1.20000: Flags [.], ack 2188099699, win 512, options [nop,nop,TS val 2184449629 ecr 2184449629], length 0
	0x0000:  4500 0034 3ab9 4000 4006 0209 7f00 0001  E..4:.@.@.......
	0x0010:  7f00 0001 dcd4 4e20 e845 efdd 826b c073  ......N..E...k.s
	0x0020:  8010 0200 fe28 0000 0101 080a 8234 0e5d  .....(.......4.]
	0x0030:  8234 0e5d                                .4.]
